:020000040800F2
:100000000050002001020008070200080B0200084F
:100010007D02000881020008C902000800000000FB
:1000200000000000000000000000000011030008B4
:100030001503000800000000190300089D150008C2
:100040002D0300082D0300082D0300082D030008D0
:100050002D0300082D0300082509000839090008B0
:100060004D09000861090008750900082D03000802
:100070002D0300082D0300082D0300082D030008A0
:100080002D0300082D0300082D0300082D03000890
:100090002D0300082D0300082D030008890900081E
:1000A0002D0300082D0300082D0300082D03000870
:1000B000791600082D0300082D0300082D03000801
:1000C0002D0300082D0300082D0300082D03000850
:1000D0002D0300082D0300082D0300082D03000840
:1000E000B90900082D0300082D03000800B583B0EE
:1000F00000F00AFB304B314A1360314A1360314B38
:10010000314A32498B4204D21168196004330432F7
:10011000F7E72A4B1A682E4B9A4200D0FEE7284B8D
:100120001A682C4B9A42F9D1234B2B4A13602B4A65
:1001300013602B4B02E000221A600433294A9342D9
:10014000F9D3254B1B6813B9244B1B6803B1FEE799
:1001500001F0B6FA694601A800F0F8F9224C234BE9
:10016000E41AA4100025AC4214DC214C214BE41A03
:10017000A4100025AC4213DC0099019801F01AFB91
:1001800005461D4C1D4BE41AA410002C0EDC28461D
:1001900000F0B8F9154B53F8253098470135E2E7E0
:1001A000144B53F8253098470135E3E7013C134BD6
:1001B00053F824309847E8E7BABADECA00000020B6
:1001C000A0000020000000202C240008A400002033
:1001D0007856341232547698A4000020BC050020D2
:1001E000A4000020C00500205803000858030008A0
:1001F0005803000858030008580300085803000873
:1002000008B5FFF773FF00BEFEE71EF0040F0CBF3A
:10021000EFF30880EFF309807146414A10472DE95A
:10022000F04182B004468846124B5E6B9F6B9D6A1C
:100230001B6B13F0020F03D00E4BDB6A002B0CDBA1
:100240000D4800F0BFF9CDF800803B463246294604
:10025000204600F0CFF900BEFEE74BF6AB6100F0A0
:1002600043FA0028ECD0034B4FF00042DA6202B0B0
:10027000BDE8F08100ED00E06C23000800BEFEE761
:100280001EF0040F0CBFEFF30880EFF309807146F6
:10029000244A10472DE9F04182B004468846084BB5
:1002A0005E6B9F6B9D6A074800F08CF9CDF800806B
:1002B0003B4632462946204600F09CF900BEFEE748
:1002C00000ED00E07C2300081EF0040F0CBFEFF3EC
:1002D0000880EFF309807146134A10472DE9F04179
:1002E00082B004468846084B5E6B9F6B9D6A074848
:1002F00000F068F9CDF800803B463246294620469A
:1003000000F078F900BEFEE700ED00E08823000869
:1003100000BEFEE700BEFEE700BEFEE7704700003D
:100320001F02000895020008DD02000800BEFEE77B
:100330002C24000800000020A40000202C24000829
:100340000000000000000000A4000020C005002004
:080350000000000000000000A5
:1003580010B504460E4B18784FF47A73B3FBF0F3DC
:100368000C4A1068B0FBF3F000F08EF868B90F2C57
:1003780001D901200AE0002221464FF0FF3000F0A9
:100388003DF8054B1C60002000E0012010BD00BFB7
:1003980004000020140000200800002008B5074AC7
:1003A800136843F010031360032000F009F80F20CE
:1003B800FFF7CEFF01F0F2FA002008BD002002404E
:1003C80010B50446C31E042B0FD80A4AD36823F479
:1003D800E0631B041B0C240204F4E064234343F091
:1003E800BF6343F40033D36010BD9221024801F08B
:1003F8006BF9EAE700ED00E01C22000870B505463D
:100408000C4616460F2A25D80F2C28D81B4BDB681C
:10041800C3F30223C3F10702042A28BF0422191DCB
:10042800062921D9033B4FF0FF3101FA02F224EAF1
:1004380002049C4001FA03F326EA03063443002D24
:1004480014DB2401E4B205F1604505F5614585F842
:10045800004370BDAA210A4801F036F9D4E7AB2160
:10046800074801F031F9D1E70023DCE705F00F0573
:100478002401E4B2034B5C55EBE700BF00ED00E05C
:100488001C22000814ED00E00138B0F1807F0AD288
:10049800064B5860064AF02182F823100020986025
:1004A80007221A6070470120704700BF10E000E083
:1004B80000ED00E010B50446042800D038B9042C3B
:1004C8000BD0094A136823F00403136010BD40F2EF
:1004D800C911064801F0F8F8F1E7034A136843F038
:1004E80004031360F2E700BF10E000E01C220008DC
:1004F800014B1868704700BF14000020FEE7000099
:1005080008B503460C4A12685AB10B4A10680333FF
:1005180023F003030344094A934206D8064A1360AA
:1005280008BD054A06491160EFE701F039FA0C23C6
:1005380003604FF0FF30F3E7A8000020004C0020D4
:10054800C005002001230360014B0B60704700BF0A
:100558000C0000202DE9F04385B004460F464356B1
:100568000BB10E461EE0042528462146ABBE0446C4
:10057800384605B0BDE8F08314F9011B04AA1A44F3
:1005880002F8101C0133AB42F6D304AA134400222C
:1005980003F8102C4FF00408E94640464946ABBE24
:1005A8008046761B002EE3D03546102E28BF102536
:1005B8000023E8E708B5FFF7CDFF08BD0FB400B585
:1005C80083B004AB53F8042B01938021064801F053
:1005D8002DFA002803DD01460348FFF7EBFF03B0BF
:1005E8005DF804EB04B07047B0000020F8B504468D
:1005F8000D4617461E462748FFF7E0FF21682648A4
:10060800FFF7DCFF61682548FFF7D8FFA168244899
:10061800FFF7D4FFE1682348FFF7D0FF216922489C
:10062800FFF7CCFF61692148FFF7C8FFA16920489F
:10063800FFF7C4FFE1691F48FFF7C0FF1E48FFF737
:10064800BDFF29461D48FFF7B9FF1D4CE16A1D484B
:10065800FFF7B4FF216B1C48FFF7B0FFE16B1B48A5
:10066800FFF7ACFF15F0800F0AD115F4004F0CD13D
:100678001748FFF7A3FF06991648FFF79FFFF8BD35
:1006880039461548FFF79AFFEFE731461348FFF759
:1006980095FFEDE75022000860220008702200084C
:1006A8008022000890220008A0220008B02200083A
:1006B800C0220008D0220008E0220008EC2200082E
:1006C80000ED00E0FC2200080C2300081C230008B1
:1006D8004C230008542300082C2300083C2300085E
:1006E80083691A888A4201D0002070470268033A59
:1006F800012A03D802338361012070470020704724
:1007080008B500F009F8024A024B9A6008BD00BF1C
:100718000000000800ED00E0704700001F4B5B6818
:1007280003F00C03042B14D0082B16D01BB11C4B60
:100738001C4A1A6002E01A4B1A4A1A60174B5B6887
:10074800C3F30313184AD15C154A1368CB401360EE
:100758007047134B134A1A60F0E7104A53685268FF
:10076800C3F38343023312F4803F0AD00B4A526822
:1007780012F4003F0BD00D4A02FB03F3084A136042
:10078800DCE70A4A02FB03F3054A1360D6E7054A89
:1007980002FB03F3024A1360D0E700BF00100240D7
:1007A8001400002000127A009823000800093D0078
:1007B80002291DD80F281BD8022917D030B4830866
:1007C80000F0030080000B4A023352F823400F2543
:1007D800854024EA050442F8234052F8234001FAF0
:1007E80000F0204342F8230030BC70470C28E5D8BD
:1007F800704700BF00000140034B5B6923FA00F01B
:1008080000F00100704700BF00040140012303FA13
:1008180000F0014B586170470004014003490B6820
:10082800012202FA00F003430B6070470004014004
:1008380010B504460846012A13D012B1022A20D066
:1008480010BD3822214600F0CBF8154B99680122DB
:1008580002FA04F421439960DA6822EA0404DC60AD
:10086800EEE72822214600F0BBF80D4BD96801229B
:1008780002FA04F42143D9609A6822EA04049C60CD
:10088800DEE70422214600F0ABF8054AD1680123CF
:1008980003FA04F42143D16093681C439460CFE7C2
:1008A800000401400F2802D8014B43F8201070477C
:1008B800300100200F2806D8022905D039B10129B6
:1008C80005D0022903D070470C28F7D8FBE7F8B504
:1008D800042804D8861DF6B2022A06D9F8BD0928CC
:1008E80001D81726F8E72826F6E71F460D460446DE
:1008F800FFF79EFF0021022000F0ECFD294620466C
:10090800FFF756FF39462046FFF7CCFF2046FFF792
:1009180085FF304600F0C7FDE0E7000008B5034B4F
:100928001B6898470020FFF771FF08BD30010020C1
:1009380008B50120FFF76AFF014B5B68984708BDBF
:100948003001002008B50220FFF760FF014B9B68CB
:10095800984708BD3001002008B50320FFF756FF6F
:10096800014BDB68984708BD3001002008B504201A
:10097800FFF74CFF014B1B69984708BD3001002069
:1009880010B5052401E00134E4B2092C0CD8204646
:10099800FFF732FF0028F6D02046FFF737FF034B5A
:1009A80053F824309847EEE710BD00BF300100200F
:1009B80010B50A2401E00134E4B20F2C0CD820460B
:1009C800FFF71AFF0028F6D02046FFF71FFF034B5A
:1009D80053F824309847EEE710BD00BF30010020DF
:1009E80082B08DF807008DF806109DF80730DBB24D
:1009F800012B57D023B1022B00F0DD8002B07047E5
:100A0800282A24D0382A2DD09DF80630DBB2072BAF
:100A180035D99DF80630DBB20F2BEFD89DF806309C
:100A2800083BDBB28DF806309DF8060080000F23E6
:100A380003FA00F0A5490B6823EA00030B609DF850
:100A480006309B0008689A4002430A60D6E79DF882
:100A58000620D1B29E48036801228A4013430360EE
:100A68000822D1E79DF80620D2B2012303FA02F248
:100A780097490B6823EA02030B600822C4E79DF834
:100A8800060080000F2303FA00F092490B6823EA5E
:100A980000030B609DF806309B0008689A400243EB
:100AA8000A60ABE7282A27D0382A30D09DF80630CC
:100AB800DBB2072B44D89DF8060080000F2303FA09
:100AC80000F085490B6823EA00030B609DF80630A7
:100AD8009B00086802FA03F303430B60082A23D03B
:100AE800282A8BD19DF80620D1B27C4803680122C0
:100AF8008A401343036081E79DF80620D1B2774806
:100B0800036801228A40134303600822CEE79DF858
:100B18000620D2B2012303FA02F270490B6823EAD5
:100B280002030B600822C1E79DF80620D2B2012318
:100B380003FA02F20C310B6823EA02030B605DE74B
:100B48009DF80630DBB20F2B3FF658AF9DF8063004
:100B5800083BDBB28DF806309DF8060080000F23B5
:100B680003FA00F05E490B6823EA00030B609DF866
:100B780006309B00086802FA03F303430B60082A57
:100B88000DD0282A7FF43AAF9DF8062002F108011B
:100B98005248036801228A40134303602EE79DF8F8
:100BA80006200832012303FA02F208310B6823EA0F
:100BB80002030B6022E7282A28D0382A31D09DF872
:100BC8000630DBB2072B45D89DF8060080000F23BE
:100BD80003FA00F043490B6823EA00030B609DF811
:100BE80006309B00086802FA03F303430B60082AE7
:100BF80024D0282A7FF402AF9DF80620D1B23A48C3
:100C0800036801228A4013430360F7E69DF8062033
:100C1800D1B23248036801228A4013430360082294
:100C2800CDE79DF80620D2B2012303FA02F22B4940
:100C38000B6823EA02030B600822C0E79DF8062030
:100C4800D2B2012303FA02F20C310B6823EA020341
:100C58000B60D3E69DF80630DBB20F2B3FF6CEAE25
:100C68009DF80630083BDBB28DF806309DF806008B
:100C780080000F2303FA00F01C490B6823EA0003E5
:100C88000B609DF806309B00086802FA03F30343E3
:100C98000B60382A0DD0282A7FF4B0AE9DF80620C4
:100CA80002F108011048036801228A4013430360D7
:100CB800A4E69DF806200832012303FA02F208315F
:100CC8000B6823EA02030B6098E600BF04080140A2
:100CD8000C08014000080140000C01400C0C0140C8
:100CE800040C0140001001400C10014004100140A8
:100CF80082B08DF807008DF806108DF805209DF854
:100D08000730DBB2012B1DD01BB1022B33D002B050
:100D180070479DF80530DBB2012B0BD09DF80530EC
:100D2800002BF4D19DF80630DAB2012393401E4A15
:100D38001360ECE79DF80630DAB2012393401B4AB2
:100D48001360E4E79DF80530DBB2012B0BD09DF86A
:100D58000530002BDBD19DF80630DAB20123934031
:100D6800134A1360D3E79DF80630DAB201239340A3
:100D7800104A1360CBE79DF80530DBB2012B0BD08E
:100D88009DF80530002BC2D19DF80630DAB2012358
:100D98009340094A1360BAE79DF80630DAB2012396
:100DA8009340064A1360B2E7140801401008014056
:100DB800140C0140100C01401410014010100140A7
:100DC80070B40346002502E000250133DBB200F1D0
:100DD8000802934218DA51F8232003F1080451F865
:100DE8002460324440F6B836B242EDD951F8232097
:100DF80051F82440224440F6D764A24202D8013573
:100E0800EDB2E2E70025E0E7082D02D0002070BC33
:100E180070470120FBE751F8202043F2C8239A428B
:100E280007D951F8202043F2AF639A4203D9002032
:100E3800704700207047012070470000426842F662
:100E4800F8239A4219D9426842F687439A4216D83B
:100E5800026849F640439A4204D902684AF2F77395
:100E68009A420ED902680A4B9A420CD9026803F6D4
:100E780097039A4209D90020704700207047002044
:100E8800704701207047002070470120704700BF5D
:100E9800E87A01000368B3F57A7F04D9026840F262
:100EA80013539A420CD90368B3F5FA6F0AD902684A
:100EB80040F6C3139A4201D8012070475820704762
:100EC80000207047582070472DE9F04782B0064649
:100ED80089461746984658238DF807300025072D70
:100EE80035D805EB090A0AF1010006EB8000FFF787
:100EF800D1FF8DF807009DF80730DBB2582B2AD0B8
:100F080097F900300124AC40E44364B223409DF8D3
:100F18000720D2B2AA4013433B700AF1110006EB36
:100F28008000FFF7B7FF8DF807009DF80730DBB2A8
:100F3800582B12D098F900301C409DF80730DBB2CE
:100F4800AB401C4388F800400135EDB2C7E70120EB
:100F580002B0BDE8F0875820FAE75820F8E700000B
:100F680010B51A4B1B783BB9184B01221A70184957
:100F7800184800F0E5FA10BD174B1C78E4B200F0F1
:100F880001FB164B43F82400154B1B782BB1154B6E
:100F980001221A70124B00221A700F4B1B78DBB219
:100FA800FF2B05D00C4A13780133DBB21370DBE753
:100FB800094B1B78DBB2FF2B01D000BFD4E7084BED
:100FC80001221A70044B00221A70CDE7700100202C
:100FD800F10F0008C0D40100BE010020C0010020AC
:100FE800730100207101002008B5214B1B78ABB9B3
:100FF800204B1B78204A11785B1ADBB213701F4B09
:1010080001221A701C4B1B78DBB2202B21D800BFA1
:1010180001220A210020FFF76BFE08BD144B1B7844
:10102800002BEFD0154B1B785BB1124B1B78124A83
:1010380011785B1A013BDBB21370104B00221A7057
:10104800E0E70C4B1B780C4A11785B1ADBB2137083
:10105800D8E70B4B01221A70064B1B78DBB2064A05
:10106800137000220A211046FFF742FED5E700BFA1
:1010780071010020BE010020BC01002018000020E2
:10108800BD01002038B502F12103FF2B27D9174BEA
:101098001B78DBB2012B13D000231DE051F824503C
:1010A80040F823500134A4B201339BB2202B0AD854
:1010B800D518FF2DF2D851F8255040F82350F3E702
:1010C80000242346F2E7094B00221A7006E00022AA
:1010D80040F8232001339BB2202BF8D938BD1346A2
:1010E800842201EB830100F061FCF7E77101002025
:1010F80038B504460D4600230A4A13700A4A13708D
:1011080005E00A4A002142F823100133DBB2FF2B25
:10111800F7D100F00FFA064B012229462046FFF7C7
:10112800C9FB38BDBE010020BC010020C001002061
:10113800690F00082DE9F84300F12103FF2B03D9BB
:1011480000BF0020BDE8F8834FF000040E460546B6
:1011580000F101095FFA89F900F111085FFA88F8CE
:10116800FFF759FE00F0010767F3000431464846CF
:10117800FFF726FE00F0010969F3410431464046B5
:10118800FFF71EFE00F0010060F3820407EA09077A
:10119800384060F3C30406EB8500FFF74FFE60F3A9
:1011A8000414E4B204F01803182B09D014F0080F43
:1011B80008D114F0100F01D10020C3E70220C1E7C5
:1011C8005820BFE70120BDE7002305E0044A0021BD
:1011D80042F823100133DBB2FF2BF7D1704700BF71
:1011E800C0010020F0B5A3B005460E46174684227C
:1011F800002101A800F0E5FB4E4B1B6833B1AB4260
:1012080004D000234C4A13704C4A1370002442E067
:101218003B463246002101A8FFF756FE582800F049
:101228008280464B01221A70434B1B7803F121023E
:10123800FE2A03D9404BFF221A700EE021333E4AA2
:1012480013700AE03D4B01221A703B4B1B789A1C25
:10125800FE2A19D9384BFF221A70374B1B78FF2BFF
:101268003AD000230CB9002B48D1012C4AD0022CCB
:1012780052D1324A1278002A4ED0002B57D02F4B29
:1012880000221A70032449E002332B4A1370E4E762
:101298000133294A1370284B1A78531CFF2BDCD8CA
:1012A800274B1B78002B3CD0294601A8FFF7EAFE04
:1012B80001A90020FFF73EFF044658282ED0012838
:1012C800A6D00228BED01C4B1B785A1CFE2ADFD998
:1012D800194BFF221A70DEE70023174A1370154ACC
:1012E8001360184B1B780BB10123BBE7144A13702A
:1012F800154A1370FFF768FF0123B3E70D4B00226F
:101308001A600BE00D4A1278002AB0D06BB10B4A74
:10131800002111701C4601E000BF5824204623B06C
:10132800F0BD6324FAE70446F8E70224F6E704244C
:10133800F4E700BF7401002072010020780100204A
:10134800BD010020710100207001002008B50122B4
:10135800034B195C034B185CFFF7CAFC08BD00BFC0
:10136800B8230008C023000808B50022034B195C05
:10137800034B185CFFF7BCFC08BD00BFB82300088E
:10138800C023000808B50022034B195C034B185C06
:10139800FFF7AEFC08BD00BFA8230008B023000873
:1013A80010B5002408E00022054B195D054B185DB7
:1013B800FFF79EFC0134E4B2072CF4D910BD00BF3E
:1013C800B8230008C023000810B5002408E0012253
:1013D800054B195D054B185DFFF78AFC0134E4B233
:1013E800072CF4D910BD00BFA8230008B0230008BB
:1013F80010B5002408E002220F4B195D0F4B185D51
:10140800FFF7EEFA0134E4B2072CF4D9002408E01F
:1014180002220B4B195D0B4B185DFFF7E1FA013403
:10142800E4B2072CF4D90721022000F0D7F8FFF71F
:10143800CBFFFFF7B5FF10BDB8230008C023000895
:10144800A8230008B02300082DE9F0410646884685
:101458000027474525D2002518E02046FFF784FFDE
:101468000134E4B2072C08D8735D234113F0010F4F
:10147800F3D02046FFF76AFFF2E740F6C4110220D6
:1014880000F0C2F807F6C4170135EDB2072DE0D811
:10149800FFF79AFFFFF784FF2846FFF773FF002442
:1014A800E0E7BDE8F0813B280AD800F01F024009B8
:1014B800800000F1604000F5614001239340036023
:1014C80070470000014B024A1A6070470CED00E0BB
:1014D8000005FA051F291CD801280BD010B10228D5
:1014E80010D070470B480368012202FA01F1194332
:1014F8000160704708480368012202FA01F11943A4
:101508000160704705480368012202FA01F1194396
:1015180001607047141002401C100240181002406D
:10152800034B01221A60043B4FF480321A60704763
:1015380004100240014B00221A60704710E000E0DE
:1015480010B40D4B1A6822F002021A601A6822F0D1
:1015580001021A6000229A60084C216008490A704A
:1015680058601A6842F002021A601A6842F00102D2
:101578001A6010BC704700BF10E000E07C0100203A
:1015880080010020024B58689B68C01A704700BF52
:1015980010E000E000B583B00D4B1B785BB90D4B34
:1015A8001A6822F002021A601A6822F001021A6010
:1015B80000225A609A60084B1B689847054B1B68C5
:1015C800C3F300438DF8073003B05DF804FB00BF98
:1015D8008001002010E000E07C0100200238C0B249
:1015E800032801D900BF704710B4064B53F82020D8
:1015F8000024946053F82030996284221A6010BC49
:10160800704700BF1C0000200238C0B203282BD846
:1016180030B40446154D55F82030D9621A6842F0A6
:1016280004021A6055F820305A6942F001025A61E2
:101638001A6842F001021A600C4B53F824301A69F8
:1016480012F0010FF8D01A6922F001021A61074A54
:1016580052F820100B6823F001030B6052F8203079
:101668000022DA6230BC704700BF70471C000020BF
:1016780008490B68DA6822F00102DA601A6922F078
:1016880001021A611A6822F001021A600B6800222E
:10169800DA6270471C00002008B5FEF729FF054BE9
:1016A800A3FB00308009FEF7EFFE0420FEF702FFDF
:1016B80008BD00BFD34D621008B5FEF76FFEFFF7F7
:1016C800EBFFFFF72BF808BD08B50A4601460248AC
:1016D800FEF774FFFEE700BFC823000838B50546CB
:1016E8000C46D1B1435C1D4A1278934221D0452B58
:1016F80009D0462B0CD01A4A1378591C1170295D51
:10170800184AD15415E018491848FFF79DFEF2E72A
:1017180015491748FFF798FEEDE7435C452B13D0B2
:10172800462B16D00E4A1378591C1170295D0D4AA4
:10173800D1542A5D094B1A70094B1B78272B02D903
:10174800074B00221A7038BD07490848FFF77CFE8E
:10175800E8E705490648FFF777FEE3E7810100203F
:10176800AC0100208401002090D003003400002048
:101778002C00002000238B4217D210B405E000246F
:10178800C4540133DBB28B420DD2012AF7D0022AAE
:1017980005D0042AF5D1002440F82340F1E70024BD
:1017A80020F81340EDE710BC70477047F0B59FB0C4
:1017B80032242246002111A800F003F92246002114
:1017C80004A800F0FEF80025039502950195FFF79F
:1017D800A7FE02210846FFF77DFE03210220FFF73E
:1017E80079FE04210220FFF775FE29460220FFF743
:1017F80071FE29460120FFF76DFEFFF79BFE0721CA
:101808000220FFF7EBFE02220A212846FFF7E8F83C
:1018180001210846FFF76CFCFFF7EAFDFFF752FECF
:101828002C465C4B1B78002B50D1312C00F2A78042
:10183800312DF6D9029B323302930122322104A8BA
:10184800FFF798FF0025ECE70134E4B2EDE72946FD
:1018580004A8FFF743FF0134E4B20135EDB2E4E731
:101868003DB16B1E1EAA134413F8683C174407F8D1
:10187800683C294604A8FFF731FF0134E4B201357A
:10188800EDB2D2E7D5B16B1E1EAA134413F8683C1B
:10189800174407F8683C294604A8FFF71FFF0134DE
:1018A800E4B20135EDB209E0294604A8FFF716FFB6
:1018B8000134E4B20135EDB200E000BF354B1B78CE
:1018C800002B46D0312C46D8312D4ED82F462646EF
:1018D80004AB5A190DF143012F48FFF783FC1EABE7
:1018E800234403F8340C13F8343C002BACD01EAB63
:1018F800234413F8343CDBB2012BA8D01EAB23449D
:1019080013F8343CDBB2032BAAD01EAB234413F8E4
:10191800343CDBB2042BB5D01EAB234413F8343C63
:10192800DBB2022BC0D01EAB234413F8343CDBB22D
:10193800582BC2D01EAB234413F8343CDBB2C72B60
:10194800BBD01EAB1E4416F8343CDBB2632BB5D1BA
:10195800B3E700BF69E7039B3233039301223221C7
:1019680011A8FFF707FF0024AEE7029B323302936A
:101978000122322104A8FFF7FDFE0025A6E7039BFC
:10198800323303930122322111A8FFF7F3FE00241A
:101998004EE700BFBD010020C001002070470000D5
:1019A800014B1868704700BF3C00002010B5431E6B
:1019B8000A44914200D110BD11F8014B03F8014FC0
:1019C800F7E703460244934200D1704703F8011B2E
:1019D800F9E730B5141E05469BB0184605DA8B2387
:1019E8004FF0FF302B601BB030BD4FF40273ADF8E1
:1019F8000C300CBF234604F1FF33029305934FF6D6
:101A0800FF7300910491ADF80E3002461E9B6946A3
:101A1800284600F073F8431CBCBF8B232B60002CB6
:101A2800E1D00022009B1A70DDE7000007B50093A3
:101A380013460A46014603480068FFF7CAFF03B089
:101A48005DF804FB3C0000202DE9F0478E688246D3
:101A58009E420C469046994637D88A8912F4906F70
:101A680031D00223256809696F1A656905EB4505B8
:101A780095FBF3F509F101033B449D4238BF1D4630
:101A8800530530D5294600F02BFB064650B90C23E8
:101A98004FF0FF30CAF80030A38943F04003A38118
:101AA800BDE8F0873A462169FFF780FFA38923F450
:101AB800906343F08003A38126613E4426604E462E
:101AC8006561ED1BA5604E4500D94E46324641463C
:101AD800206800F09FFAA36800209B1BA36023687E
:101AE8001E442660DCE72A4600F054FB0646002820
:101AF800E2D12169504600F0A7FAC8E72DE9F04F76
:101B08009DB003938B8980461D060C4616460FD55B
:101B18000B696BB9402100F0E3FA2060206128B915
:101B28000C23C8F800304FF0FF30C7E04023636152
:101B38000023099320238DF8293030234FF0010B1F
:101B48008DF82A3037463D4615F8013B0BB1252B59
:101B58003ED1B7EB060A0BD05346324621464046E3
:101B6800FFF772FF013000F0A480099B53440993EA
:101B78003B78002B00F09D8000234FF0FF32CDE929
:101B88000523049307938DF853301A932F460522A3
:101B980017F8011B4F4800F02FFA049BD0B9D9065B
:101BA80044BF20228DF853201A0744BF2B228DF8FA
:101BB80053202A782A2A15D02F4600200A25079A6A
:101BC800394611F8013B303B092B4DD9B8B10FE02C
:101BD8002F46B8E73F4A3D46801A0BFA00F01843F3
:101BE8000490D3E7039A111D12680391002A01DBC0
:101BF800079204E0524243F00203079204933B78B1
:101C08002E2B0CD17B782A2B33D1039B02371A1D3C
:101C18001B680392002BB8BF4FF0FF3305932E4D7E
:101C280003223978284600F0E7F938B14023401BF1
:101C380003FA00F0049B0137034304933978062222
:101C480026487E1C8DF8281000F0D6F9002838D0D8
:101C5800234B13BB039B073323F00703083303937A
:101C6800099B4B4409936DE705FB023201200F469F
:101C7800A6E700230A25194601370593384610F8C8
:101C8800012B303A092A03D9002BC8D00591C6E7A1
:101C980005FB012101230746F0E703AB0093224629
:101CA800104B04A94046AFF30080B0F1FF3F8146D6
:101CB800D6D1A3895B063FF536AF09981DB0BDE8BC
:101CC800F08F03AB00932246064B04A9404600F070
:101CD80081F8EAE7F8230008FE2300080224000838
:101CE80000000000511A00082DE9F04791461F46F0
:101CF8008A680B6906469342B8BF1346C9F8003094
:101D080091F843200C46DDF8208012B10133C9F860
:101D180000302368990642BFD9F800300233C9F869
:101D28000030256815F0060507D104F1190AE368A3
:101D3800D9F800209B1AAB4229DC94F8433022687A
:101D4800003318BF012392062ED404F1430239460A
:101D58003046C047013021D02368E56803F0060308
:101D6800042B18BF0025D9F800204FF0000908BF40
:101D7800AD1AA368226908BF25EAE5759342C4BF76
:101D88009B1AED181A344D451AD1002008E001239A
:101D9800524639463046C047013003D14FF0FF3034
:101DA800BDE8F0870135C2E73020E11881F843002B
:101DB8005A1C94F845102244023382F84310C4E7B1
:101DC8000123224639463046C0470130E6D009F1A2
:101DD8000109D8E72DE9F04301F1430C0C46097ECF
:101DE80085B06E291746064698460C9A00F0B380CF
:101DF80022D8632936D00AD8002900F0B98058299A
:101E080000F0838004F1420584F8421032E064292E
:101E180001D06929F6D120681368050603F1040189
:101E28002AD51B681160002B03DA2D225B4284F847
:101E380043206F480A2239E0732900F09D8008D8B2
:101E48006F2920D07029DDD1236843F02003236057
:101E580003E0752917D07829D4D17823654884F808
:101E6800453055E0136804F14205191D1B681160DF
:101E780084F8423001238CE01B6810F0400F116099
:101E880018BF1BB2CFE713682568181D1060280615
:101E980001D51B6802E06806FBD51B886F2914BFB3
:101EA8000A2208225248002184F843106568002D50
:101EB800A560C0F29580216821F004012160002B03
:101EC8003DD1002D40F08E806546082A0BD123684D
:101ED800DB0708D5236962689A42DEBF302305F81C
:101EE800013C05F1FF35ACEB05032361CDF800801B
:101EF8003B4603AA21463046FFF7F6FE01304DD196
:101F08004FF0FF3005B0BDE8F083394884F845103C
:101F1800136821681D1D1B6815600A060BD5CA07C2
:101F280044BF41F0200121601BB9226822F0200241
:101F380022601022B7E74D0648BF9BB2EFE765461F
:101F4800B3FBF2F102FB1133C35C05F8013D0B460C
:101F58000029F5D1B9E713682568181D6169106073
:101F680028061B6801D5196002E06A06FBD51980AE
:101F7800002365462361B9E71368191D11601D68C0
:101F880062680021284600F037F808B1401B6060FD
:101F980063682361002384F84330A7E723692A464E
:101FA80039463046C0470130AAD023689B0713D46E
:101FB800E068039B9842B8BF1846A3E701234A4646
:101FC80039463046C04701309AD00135E368039A54
:101FD8009B1AAB42F2DCEBE7002504F11909F5E79F
:101FE800002BACD1037804F1420584F842306CE749
:101FF800092400081A24000810B5C9B20244904206
:10200800034601D1002303E01C7801308C42F6D14D
:10201800184610BD884210B501EB020307D8421ECE
:1020280099420AD011F8014B02F8014FF8E78342B0
:10203800F5D98118D21AD34200D110BD13F8014D39
:1020480001F8014DF7E7000038B50546002943D0EF
:1020580051F8043C0C1F002BB8BFE41800F0D0F86E
:102068001E4A1368104633B9636014602846BDE8F9
:10207800384000F0C6B8A3420BD9216862189342D1
:1020880001BF1A685B685218226063600460EDE75C
:1020980013465A680AB1A242FAD919685818A042D8
:1020A8000BD120680144581882421960DED11068AB
:1020B8005268014419605A60D8E702D90C232B6092
:1020C800D4E7206821188A4201BF116852680918AC
:1020D800216062605C60C9E738BD00BFB0010020C4
:1020E80070B5CD1C25F0030508350C2D38BF0C251F
:1020F800002D064601DBA94203D90C2333600020DA
:1021080070BD00F07DF8214A1468214691B9204C31
:1021180023681BB9304600F063F820602946304632
:1021280000F05EF8431C24D10C233046336000F0E5
:1021380068F8E4E70B685B1B18D40B2B0FD90B600E
:10214800CC18CD50304600F05CF804F10B00231D8C
:1021580020F00700C31AD3D05A42E250D0E74B68A8
:102168008C4216BF636013600C46EBE70C46496867
:10217800CCE7C41C24F00304A04205D0211A304641
:1021880000F02EF80130CFD02560DBE7B001002049
:10219800B4010020F8B5074614460E4621B9BDE83B
:1021A800F8401146FFF79CBF22B9FFF74DFF2546BF
:1021B8002846F8BD00F026F8A0420FD2214638463E
:1021C800FFF78EFF05460028F2D031462246FFF77A
:1021D800EDFB31463846FFF737FFE9E73546E7E7D5
:1021E80038B50023054C054608462360FEF788F9F4
:1021F800431C02D1236803B12B6038BDB80100200D
:102208007047704751F8043C181F002BBCBF0B588F
:10221800C01870472E2E2F73797374656D2F7372E3
:10222800632F73746D333266312D68616C2F73744C
:102238006D3332663178785F68616C5F636F727492
:1022480065782E6300000000537461636B2066722A
:10225800616D653A0A000000205230203D2020259B
:102268003038580A00000000205231203D20202537
:102278003038580A00000000205232203D20202526
:102288003038580A00000000205233203D20202515
:102298003038580A0000000020523132203D2025F5
:1022A8003038580A00000000204C52203D202025DC
:1022B8003038580A00000000205043203D202025D7
:1022C8003038580A0000000020505352203D202585
:1022D8003038580A000000004653522F4641523AFF
:1022E8000A0000002043465352203D202025303864
:1022F800580A00002048465352203D2020253038F7
:10230800580A00002044465352203D2020253038EA
:10231800580A00002041465352203D2020253038DD
:10232800580A0000204D4D464152203D20253038A6
:10233800580A00002042464152203D2020253038CE
:10234800580A00004D6973630A000000204C522FA0
:102358004558435F52455455524E3D202530385814
:102368000A0000005B486172644661756C745D0A1E
:10237800000000005B4275734661756C745D0A006D
:102388005B55736167654661756C745D0A00000092
:10239800000000000000000001020304060708090D
:1023A8000005060708090A0B0101010101010101E5
:1023B80000010203090506070000000000000000F4
:1023C80057726F6E6720706172616D6574657273A4
:1023D8002076616C75653A2066696C6520257320E6
:1023E8006F6E206C696E652025640D0A0000000080
:1023F800232D302B2000686C4C00656667454647E6
:102408000030313233343536373839414243444568
:1024180046003031323334353637383961626364D7
:03242800656600E6
:10242C007856341201FFFFFF10000000AC000020B2
:10243C00000000000024F40001FFFFFF000000403A
:10244C000004004000080040000C0040007F020423
:10245C000804027F007E0A0A0A0E000040000020D9
:10246C000000000000000000000000000000000060
:10247C000000000000000000000000000000000050
:10248C000000000000000000000000000000000040
:10249C000000000000000000000000000000000030
:1024AC000000000000000000000000000000000020
:1024BC000000000000000000000000000000000010
:0424CC003254769878
:04000005080000ED02
:00000001FF
